{
  "_format": "hh-sol-artifact-1",
  "contractName": "MyCryptoWallet",
  "sourceName": "contracts/MyCryptoWallet.sol",
  "abi": [
    {
      "inputs": [
        {
          "internalType": "address",
          "name": "_usdtToken",
          "type": "address"
        },
        {
          "internalType": "address",
          "name": "_bxcToken",
          "type": "address"
        }
      ],
      "stateMutability": "nonpayable",
      "type": "constructor"
    },
    {
      "inputs": [],
      "name": "ContractPaused",
      "type": "error"
    },
    {
      "inputs": [
        {
          "internalType": "address",
          "name": "token",
          "type": "address"
        },
        {
          "internalType": "uint256",
          "name": "requested",
          "type": "uint256"
        },
        {
          "internalType": "uint256",
          "name": "available",
          "type": "uint256"
        }
      ],
      "name": "InsufficientContractBalance",
      "type": "error"
    },
    {
      "inputs": [],
      "name": "InsufficientUserBalance",
      "type": "error"
    },
    {
      "inputs": [],
      "name": "InvalidAmount",
      "type": "error"
    },
    {
      "inputs": [],
      "name": "InvalidRecipient",
      "type": "error"
    },
    {
      "inputs": [],
      "name": "InvalidUserAddress",
      "type": "error"
    },
    {
      "inputs": [],
      "name": "NotOwner",
      "type": "error"
    },
    {
      "inputs": [],
      "name": "TransferFailed",
      "type": "error"
    },
    {
      "inputs": [],
      "name": "UnsupportedToken",
      "type": "error"
    },
    {
      "inputs": [],
      "name": "ZeroAddress",
      "type": "error"
    },
    {
      "anonymous": false,
      "inputs": [
        {
          "indexed": true,
          "internalType": "address",
          "name": "user",
          "type": "address"
        },
        {
          "indexed": true,
          "internalType": "address",
          "name": "token",
          "type": "address"
        },
        {
          "indexed": false,
          "internalType": "uint256",
          "name": "amount",
          "type": "uint256"
        },
        {
          "indexed": false,
          "internalType": "uint256",
          "name": "timestamp",
          "type": "uint256"
        }
      ],
      "name": "CryptoWithdrawalExecuted",
      "type": "event"
    },
    {
      "anonymous": false,
      "inputs": [
        {
          "indexed": true,
          "internalType": "address",
          "name": "user",
          "type": "address"
        },
        {
          "indexed": true,
          "internalType": "address",
          "name": "token",
          "type": "address"
        },
        {
          "indexed": false,
          "internalType": "uint256",
          "name": "amount",
          "type": "uint256"
        },
        {
          "indexed": false,
          "internalType": "uint256",
          "name": "timestamp",
          "type": "uint256"
        }
      ],
      "name": "Deposit",
      "type": "event"
    },
    {
      "anonymous": false,
      "inputs": [
        {
          "indexed": true,
          "internalType": "address",
          "name": "user",
          "type": "address"
        },
        {
          "indexed": false,
          "internalType": "uint256",
          "name": "amount",
          "type": "uint256"
        },
        {
          "indexed": false,
          "internalType": "uint256",
          "name": "timestamp",
          "type": "uint256"
        }
      ],
      "name": "InrDeposit",
      "type": "event"
    },
    {
      "anonymous": false,
      "inputs": [
        {
          "indexed": true,
          "internalType": "address",
          "name": "user",
          "type": "address"
        },
        {
          "indexed": false,
          "internalType": "uint256",
          "name": "amount",
          "type": "uint256"
        },
        {
          "indexed": false,
          "internalType": "uint256",
          "name": "timestamp",
          "type": "uint256"
        }
      ],
      "name": "InrWithdraw",
      "type": "event"
    },
    {
      "anonymous": false,
      "inputs": [
        {
          "indexed": true,
          "internalType": "address",
          "name": "previousOwner",
          "type": "address"
        },
        {
          "indexed": true,
          "internalType": "address",
          "name": "newOwner",
          "type": "address"
        }
      ],
      "name": "OwnershipTransferred",
      "type": "event"
    },
    {
      "anonymous": false,
      "inputs": [
        {
          "indexed": false,
          "internalType": "address",
          "name": "account",
          "type": "address"
        }
      ],
      "name": "Paused",
      "type": "event"
    },
    {
      "anonymous": false,
      "inputs": [
        {
          "indexed": true,
          "internalType": "address",
          "name": "from",
          "type": "address"
        },
        {
          "indexed": true,
          "internalType": "address",
          "name": "to",
          "type": "address"
        },
        {
          "indexed": true,
          "internalType": "address",
          "name": "token",
          "type": "address"
        },
        {
          "indexed": false,
          "internalType": "uint256",
          "name": "amount",
          "type": "uint256"
        },
        {
          "indexed": false,
          "internalType": "uint256",
          "name": "timestamp",
          "type": "uint256"
        }
      ],
      "name": "Transfer",
      "type": "event"
    },
    {
      "anonymous": false,
      "inputs": [
        {
          "indexed": false,
          "internalType": "address",
          "name": "account",
          "type": "address"
        }
      ],
      "name": "Unpaused",
      "type": "event"
    },
    {
      "anonymous": false,
      "inputs": [
        {
          "indexed": true,
          "internalType": "address",
          "name": "user",
          "type": "address"
        },
        {
          "indexed": true,
          "internalType": "address",
          "name": "token",
          "type": "address"
        },
        {
          "indexed": false,
          "internalType": "uint256",
          "name": "amount",
          "type": "uint256"
        },
        {
          "indexed": false,
          "internalType": "uint256",
          "name": "timestamp",
          "type": "uint256"
        }
      ],
      "name": "Withdraw",
      "type": "event"
    },
    {
      "inputs": [],
      "name": "bxcToken",
      "outputs": [
        {
          "internalType": "address",
          "name": "",
          "type": "address"
        }
      ],
      "stateMutability": "view",
      "type": "function"
    },
    {
      "inputs": [
        {
          "internalType": "address",
          "name": "token",
          "type": "address"
        },
        {
          "internalType": "uint256",
          "name": "amount",
          "type": "uint256"
        }
      ],
      "name": "depositCrypto",
      "outputs": [],
      "stateMutability": "nonpayable",
      "type": "function"
    },
    {
      "inputs": [
        {
          "internalType": "address",
          "name": "user",
          "type": "address"
        },
        {
          "internalType": "uint256",
          "name": "amount",
          "type": "uint256"
        }
      ],
      "name": "depositInr",
      "outputs": [],
      "stateMutability": "nonpayable",
      "type": "function"
    },
    {
      "inputs": [
        {
          "internalType": "address",
          "name": "token",
          "type": "address"
        },
        {
          "internalType": "uint256",
          "name": "amount",
          "type": "uint256"
        },
        {
          "internalType": "address",
          "name": "recipient",
          "type": "address"
        }
      ],
      "name": "emergencyRecover",
      "outputs": [],
      "stateMutability": "nonpayable",
      "type": "function"
    },
    {
      "inputs": [
        {
          "internalType": "address",
          "name": "user",
          "type": "address"
        },
        {
          "internalType": "address",
          "name": "token",
          "type": "address"
        },
        {
          "internalType": "uint256",
          "name": "amount",
          "type": "uint256"
        }
      ],
      "name": "executeWithdrawalTo",
      "outputs": [],
      "stateMutability": "nonpayable",
      "type": "function"
    },
    {
      "inputs": [
        {
          "internalType": "address",
          "name": "token",
          "type": "address"
        }
      ],
      "name": "getContractBalance",
      "outputs": [
        {
          "internalType": "uint256",
          "name": "",
          "type": "uint256"
        }
      ],
      "stateMutability": "view",
      "type": "function"
    },
    {
      "inputs": [],
      "name": "getContractInfo",
      "outputs": [
        {
          "internalType": "string",
          "name": "version",
          "type": "string"
        },
        {
          "internalType": "bool",
          "name": "isPaused",
          "type": "bool"
        },
        {
          "internalType": "address",
          "name": "contractOwner",
          "type": "address"
        },
        {
          "internalType": "address",
          "name": "usdtAddress",
          "type": "address"
        },
        {
          "internalType": "address",
          "name": "bxcAddress",
          "type": "address"
        }
      ],
      "stateMutability": "view",
      "type": "function"
    },
    {
      "inputs": [],
      "name": "getSupportedTokens",
      "outputs": [
        {
          "internalType": "address[]",
          "name": "",
          "type": "address[]"
        }
      ],
      "stateMutability": "view",
      "type": "function"
    },
    {
      "inputs": [
        {
          "internalType": "address",
          "name": "user",
          "type": "address"
        }
      ],
      "name": "getUserBalances",
      "outputs": [
        {
          "internalType": "uint256",
          "name": "usdtBalance",
          "type": "uint256"
        },
        {
          "internalType": "uint256",
          "name": "bxcBalance",
          "type": "uint256"
        },
        {
          "internalType": "uint256",
          "name": "inrBalance",
          "type": "uint256"
        }
      ],
      "stateMutability": "view",
      "type": "function"
    },
    {
      "inputs": [
        {
          "internalType": "address",
          "name": "user",
          "type": "address"
        },
        {
          "internalType": "address",
          "name": "token",
          "type": "address"
        }
      ],
      "name": "getUserCryptoBalance",
      "outputs": [
        {
          "internalType": "uint256",
          "name": "",
          "type": "uint256"
        }
      ],
      "stateMutability": "view",
      "type": "function"
    },
    {
      "inputs": [
        {
          "internalType": "address",
          "name": "user",
          "type": "address"
        }
      ],
      "name": "getUserInrBalance",
      "outputs": [
        {
          "internalType": "uint256",
          "name": "",
          "type": "uint256"
        }
      ],
      "stateMutability": "view",
      "type": "function"
    },
    {
      "inputs": [
        {
          "internalType": "address",
          "name": "token",
          "type": "address"
        }
      ],
      "name": "isTokenSupported",
      "outputs": [
        {
          "internalType": "bool",
          "name": "",
          "type": "bool"
        }
      ],
      "stateMutability": "view",
      "type": "function"
    },
    {
      "inputs": [],
      "name": "owner",
      "outputs": [
        {
          "internalType": "address",
          "name": "",
          "type": "address"
        }
      ],
      "stateMutability": "view",
      "type": "function"
    },
    {
      "inputs": [],
      "name": "pause",
      "outputs": [],
      "stateMutability": "nonpayable",
      "type": "function"
    },
    {
      "inputs": [],
      "name": "paused",
      "outputs": [
        {
          "internalType": "bool",
          "name": "",
          "type": "bool"
        }
      ],
      "stateMutability": "view",
      "type": "function"
    },
    {
      "inputs": [],
      "name": "renounceOwnership",
      "outputs": [],
      "stateMutability": "nonpayable",
      "type": "function"
    },
    {
      "inputs": [
        {
          "internalType": "address",
          "name": "recipient",
          "type": "address"
        },
        {
          "internalType": "address",
          "name": "token",
          "type": "address"
        },
        {
          "internalType": "uint256",
          "name": "amount",
          "type": "uint256"
        }
      ],
      "name": "transferCrypto",
      "outputs": [],
      "stateMutability": "nonpayable",
      "type": "function"
    },
    {
      "inputs": [
        {
          "internalType": "address",
          "name": "newOwner",
          "type": "address"
        }
      ],
      "name": "transferOwnership",
      "outputs": [],
      "stateMutability": "nonpayable",
      "type": "function"
    },
    {
      "inputs": [],
      "name": "unpause",
      "outputs": [],
      "stateMutability": "nonpayable",
      "type": "function"
    },
    {
      "inputs": [],
      "name": "usdtToken",
      "outputs": [
        {
          "internalType": "address",
          "name": "",
          "type": "address"
        }
      ],
      "stateMutability": "view",
      "type": "function"
    },
    {
      "inputs": [
        {
          "internalType": "address",
          "name": "",
          "type": "address"
        },
        {
          "internalType": "address",
          "name": "",
          "type": "address"
        }
      ],
      "name": "userCryptoBalances",
      "outputs": [
        {
          "internalType": "uint256",
          "name": "",
          "type": "uint256"
        }
      ],
      "stateMutability": "view",
      "type": "function"
    },
    {
      "inputs": [
        {
          "internalType": "address",
          "name": "",
          "type": "address"
        }
      ],
      "name": "userInrBalance",
      "outputs": [
        {
          "internalType": "uint256",
          "name": "",
          "type": "uint256"
        }
      ],
      "stateMutability": "view",
      "type": "function"
    },
    {
      "inputs": [
        {
          "internalType": "address",
          "name": "token",
          "type": "address"
        },
        {
          "internalType": "uint256",
          "name": "amount",
          "type": "uint256"
        }
      ],
      "name": "withdrawCrypto",
      "outputs": [],
      "stateMutability": "nonpayable",
      "type": "function"
    },
    {
      "inputs": [
        {
          "internalType": "address",
          "name": "user",
          "type": "address"
        },
        {
          "internalType": "uint256",
          "name": "amount",
          "type": "uint256"
        }
      ],
      "name": "withdrawInr",
      "outputs": [],
      "stateMutability": "nonpayable",
      "type": "function"
    }
  ],
  "bytecode": "0x60c06040523480156200001157600080fd5b5060405162001ce038038062001ce083398101604081905262000034916200012d565b60016000819055805460ff191690556200004e33620000b6565b6001600160a01b038216620000765760405163d92e233d60e01b815260040160405180910390fd5b6001600160a01b0381166200009e5760405163d92e233d60e01b815260040160405180910390fd5b6001600160a01b039182166080521660a05262000165565b600180546001600160a01b03838116610100818102610100600160a81b031985161790945560405193909204169182907f8be0079c531659141344cd1fd0a4f28419497f9722a3daafe3b4186f6b6457e090600090a35050565b80516001600160a01b03811681146200012857600080fd5b919050565b600080604083850312156200014157600080fd5b6200014c8362000110565b91506200015c6020840162000110565b90509250929050565b60805160a051611ad762000209600039600081816103650152818161054801528181610743015281816109ed01528181610a8f01528181610b0601528181610cc601528181610f3801528181610fba01526112050152600081816102e80152818161050b01528181610706015281816109b201528181610a6c01528181610ac901528181610c8901528181610f0d01528181610f7d01526111b10152611ad76000f3fe608060405234801561001057600080fd5b50600436106101585760003560e01c8063876a43b4116100c3578063abd3f6121161007c578063abd3f6121461030a578063c094efb314610338578063d3c7c2c71461034b578063e864307014610360578063f2fde38b14610387578063f48453fd1461039a57600080fd5b8063876a43b4146102555780638c8746ba146102805780638da5cb5b14610293578063956a6ac8146102bd578063975813a6146102d0578063a98ad46c146102e357600080fd5b80635c975abb116101155780635c975abb146101ef5780636fc984c814610206578063715018a61461021957806375151b63146102215780637cc1f867146102345780638456cb591461024d57600080fd5b8063086f93a81461015d57806311f6c72114610172578063347e3f45146101ae5780633dcc1870146101c15780633f4ba83a146101d457806343ab265f146101dc575b600080fd5b61017061016b36600461180f565b6103ba565b005b61019b61018036600461184b565b6001600160a01b031660009081526003602052604090205490565b6040519081526020015b60405180910390f35b6101706101bc36600461186d565b6104d4565b6101706101cf3660046118a9565b6106fb565b610170610850565b61019b6101ea36600461184b565b610862565b60015460ff165b60405190151581526020016101a5565b6101706102143660046118a9565b6108d3565b61017061099c565b6101f661022f36600461184b565b6109ae565b61023c610a26565b6040516101a5959493929190611923565b610170610ab4565b61019b610263366004611965565b600260209081526000928352604080842090915290825290205481565b61019b61028e366004611965565b610ac4565b60015461010090046001600160a01b03165b6040516001600160a01b0390911681526020016101a5565b6101706102cb3660046118a9565b610b86565b6101706102de3660046118a9565b610c7e565b6102a57f000000000000000000000000000000000000000000000000000000000000000081565b61031d61031836600461184b565b610ebf565b604080519384526020840192909252908201526060016101a5565b61017061034636600461186d565b610f72565b61035361118a565b6040516101a59190611998565b6102a57f000000000000000000000000000000000000000000000000000000000000000081565b61017061039536600461184b565b611254565b61019b6103a836600461184b565b60036020526000908152604090205481565b6103c26112be565b81806000036103e45760405163162908e360e11b815260040160405180910390fd5b816001600160a01b03811661040c5760405163d92e233d60e01b815260040160405180910390fd5b6040516370a0823160e01b81523060048201526000906001600160a01b038716906370a0823190602401602060405180830381865afa158015610453573d6000803e3d6000fd5b505050506040513d601f19601f8201168201806040525081019061047791906119e5565b9050848110156104b857604051634390211d60e11b81526001600160a01b038716600482015260248101869052604481018290526064015b60405180910390fd5b6104cc6001600160a01b038716858761131e565b505050505050565b6104dc6112be565b6104e4611381565b60015460ff16156105085760405163ab35696f60e01b815260040160405180910390fd5b817f00000000000000000000000000000000000000000000000000000000000000006001600160a01b0316816001600160a01b03161415801561057d57507f00000000000000000000000000000000000000000000000000000000000000006001600160a01b0316816001600160a01b031614155b1561059b5760405163350b944160e11b815260040160405180910390fd5b81806000036105bd5760405163162908e360e11b815260040160405180910390fd5b846001600160a01b0381166105e55760405163d92e233d60e01b815260040160405180910390fd5b6040516370a0823160e01b81523060048201526000906001600160a01b038716906370a0823190602401602060405180830381865afa15801561062c573d6000803e3d6000fd5b505050506040513d601f19601f8201168201806040525081019061065091906119e5565b90508481101561068c57604051634390211d60e11b81526001600160a01b038716600482015260248101869052604481018290526064016104af565b6106a06001600160a01b038716888761131e565b604080518681524260208201526001600160a01b0380891692908a16917fb64d48c1f98443c18d48bd793e08fa6084354ab870c0573dc7db26a62e748fb3910160405180910390a3505050506106f66001600055565b505050565b6107036113da565b817f00000000000000000000000000000000000000000000000000000000000000006001600160a01b0316816001600160a01b03161415801561077857507f00000000000000000000000000000000000000000000000000000000000000006001600160a01b0316816001600160a01b031614155b156107965760405163350b944160e11b815260040160405180910390fd5b81806000036107b85760405163162908e360e11b815260040160405180910390fd5b6107cd6001600160a01b038516333086611420565b3360009081526002602090815260408083206001600160a01b038816845290915281208054859290610800908490611a14565b9091555050604080518481524260208201526001600160a01b0386169133917fdcbc1c05240f31ff3ad067ef1ee35ce4997762752e3a095284754544f4c709d7910160405180910390a350505050565b6108586112be565b61086061145e565b565b6040516370a0823160e01b81523060048201526000906001600160a01b038316906370a0823190602401602060405180830381865afa1580156108a9573d6000803e3d6000fd5b505050506040513d601f19601f820116820180604052508101906108cd91906119e5565b92915050565b6108db6113da565b816001600160a01b0381166109035760405163d92e233d60e01b815260040160405180910390fd5b81806000036109255760405163162908e360e11b815260040160405180910390fd5b6001600160a01b0384166000908152600360205260408120805485929061094d908490611a14565b9091555050604080518481524260208201526001600160a01b038616917f8739b9bdd89acf4a978aca14a6c784115b9f3ad53cf244a3adea40e8a33014e691015b60405180910390a250505050565b6109a46112be565b61086060006114b0565b60007f00000000000000000000000000000000000000000000000000000000000000006001600160a01b0316826001600160a01b031614806108cd57507f00000000000000000000000000000000000000000000000000000000000000006001600160a01b0316826001600160a01b03161492915050565b6040805180820190915260058152640322e302e360dc1b60208201526000808080610a5360015460ff1690565b6001549596909561010090046001600160a01b031694507f000000000000000000000000000000000000000000000000000000000000000093507f000000000000000000000000000000000000000000000000000000000000000092509050565b610abc6112be565b61086061150a565b6000817f00000000000000000000000000000000000000000000000000000000000000006001600160a01b0316816001600160a01b031614158015610b3b57507f00000000000000000000000000000000000000000000000000000000000000006001600160a01b0316816001600160a01b031614155b15610b595760405163350b944160e11b815260040160405180910390fd5b50506001600160a01b03918216600090815260026020908152604080832093909416825291909152205490565b610b8e6113da565b816001600160a01b038116610bb65760405163d92e233d60e01b815260040160405180910390fd5b8180600003610bd85760405163162908e360e11b815260040160405180910390fd5b6001600160a01b038416600090815260036020526040902054831115610c11576040516324aa779360e21b815260040160405180910390fd5b6001600160a01b03841660009081526003602052604081208054859290610c39908490611a27565b9091555050604080518481524260208201526001600160a01b038616917f3ec76446a3d5899026c73fa6a82628ebe1668d1f798c8a12161f0ef3104cc3cb910161098e565b610c866113da565b817f00000000000000000000000000000000000000000000000000000000000000006001600160a01b0316816001600160a01b031614158015610cfb57507f00000000000000000000000000000000000000000000000000000000000000006001600160a01b0316816001600160a01b031614155b15610d195760405163350b944160e11b815260040160405180910390fd5b8180600003610d3b5760405163162908e360e11b815260040160405180910390fd5b3360009081526002602090815260408083206001600160a01b0388168452909152902054831115610d7f576040516324aa779360e21b815260040160405180910390fd5b6040516370a0823160e01b81523060048201526000906001600160a01b038616906370a0823190602401602060405180830381865afa158015610dc6573d6000803e3d6000fd5b505050506040513d601f19601f82011682018060405250810190610dea91906119e5565b905083811015610e2657604051634390211d60e11b81526001600160a01b038616600482015260248101859052604481018290526064016104af565b3360009081526002602090815260408083206001600160a01b038916845290915281208054869290610e59908490611a27565b90915550610e7390506001600160a01b038616338661131e565b604080518581524260208201526001600160a01b0387169133917ff341246adaac6f497bc2a656f546ab9e182111d630394f0c57c710a59a2cb567910160405180910390a35050505050565b60008080836001600160a01b038116610eeb5760405163d92e233d60e01b815260040160405180910390fd5b505050506001600160a01b0390811660008181526002602090815260408083207f0000000000000000000000000000000000000000000000000000000000000000861684528252808320547f000000000000000000000000000000000000000000000000000000000000000090951683528083205493835260039091529020549192909190565b610f7a6113da565b817f00000000000000000000000000000000000000000000000000000000000000006001600160a01b0316816001600160a01b031614158015610fef57507f00000000000000000000000000000000000000000000000000000000000000006001600160a01b0316816001600160a01b031614155b1561100d5760405163350b944160e11b815260040160405180910390fd5b818060000361102f5760405163162908e360e11b815260040160405180910390fd5b846001600160a01b0381166110575760405163d92e233d60e01b815260040160405180910390fd5b6001600160a01b038616330361108057604051634e46966960e11b815260040160405180910390fd5b3360009081526002602090815260408083206001600160a01b03891684529091529020548411156110c4576040516324aa779360e21b815260040160405180910390fd5b3360009081526002602090815260408083206001600160a01b0389168452909152812080548692906110f7908490611a27565b90915550506001600160a01b03808716600090815260026020908152604080832093891683529290529081208054869290611133908490611a14565b9091555050604080518581524260208201526001600160a01b03808816929089169133917f1b3d7edb2e9c0b0e7c525b20aaaef0f5940d2ed71663c7d39266ecafac728859910160405180910390a4505050505050565b604080516002808252606080830184529260009291906020830190803683370190505090507f0000000000000000000000000000000000000000000000000000000000000000816000815181106111e3576111e3611a3a565b60200260200101906001600160a01b031690816001600160a01b0316815250507f00000000000000000000000000000000000000000000000000000000000000008160018151811061123757611237611a3a565b6001600160a01b0390921660209283029190910190910152919050565b61125c6112be565b6001600160a01b0381166112b25760405162461bcd60e51b815260206004820181905260248201527f4e6577206f776e65722063616e6e6f74206265207a65726f206164647265737360448201526064016104af565b6112bb816114b0565b50565b6001546001600160a01b036101009091041633146108605760405162461bcd60e51b815260206004820181905260248201527f4f776e61626c653a2063616c6c6572206973206e6f7420746865206f776e657260448201526064016104af565b6040516001600160a01b0383166024820152604481018290526106f690849063a9059cbb60e01b906064015b60408051601f198184030181529190526020810180516001600160e01b03166001600160e01b031990931692909217909152611545565b6002600054036113d35760405162461bcd60e51b815260206004820152601f60248201527f5265656e7472616e637947756172643a207265656e7472616e742063616c6c0060448201526064016104af565b6002600055565b60015460ff16156108605760405162461bcd60e51b815260206004820152601060248201526f14185d5cd8589b194e881c185d5cd95960821b60448201526064016104af565b6040516001600160a01b03808516602483015283166044820152606481018290526114589085906323b872dd60e01b9060840161134a565b50505050565b61146661161a565b6001805460ff191690557f5db9ee0a495bf2e6ff9c91a7834c1ba4fdd244a5e8aa4e537bd38aeae4b073aa335b6040516001600160a01b03909116815260200160405180910390a1565b600180546001600160a01b03838116610100818102610100600160a81b031985161790945560405193909204169182907f8be0079c531659141344cd1fd0a4f28419497f9722a3daafe3b4186f6b6457e090600090a35050565b6115126113da565b6001805460ff1916811790557f62e78cea01bee320cd4e420270b5ea74000d11b0c9f74754ebdbfc544b05a25833611493565b600061159a826040518060400160405280602081526020017f5361666545524332303a206c6f772d6c6576656c2063616c6c206661696c6564815250856001600160a01b03166116639092919063ffffffff16565b90508051600014806115bb5750808060200190518101906115bb9190611a50565b6106f65760405162461bcd60e51b815260206004820152602a60248201527f5361666545524332303a204552433230206f7065726174696f6e20646964206e6044820152691bdd081cdd58d8d9595960b21b60648201526084016104af565b60015460ff166108605760405162461bcd60e51b815260206004820152601460248201527314185d5cd8589b194e881b9bdd081c185d5cd95960621b60448201526064016104af565b6060611672848460008561167a565b949350505050565b6060824710156116db5760405162461bcd60e51b815260206004820152602660248201527f416464726573733a20696e73756666696369656e742062616c616e636520666f6044820152651c8818d85b1b60d21b60648201526084016104af565b600080866001600160a01b031685876040516116f79190611a72565b60006040518083038185875af1925050503d8060008114611734576040519150601f19603f3d011682016040523d82523d6000602084013e611739565b606091505b509150915061174a87838387611755565b979650505050505050565b606083156117c45782516000036117bd576001600160a01b0385163b6117bd5760405162461bcd60e51b815260206004820152601d60248201527f416464726573733a2063616c6c20746f206e6f6e2d636f6e747261637400000060448201526064016104af565b5081611672565b61167283838151156117d95781518083602001fd5b8060405162461bcd60e51b81526004016104af9190611a8e565b80356001600160a01b038116811461180a57600080fd5b919050565b60008060006060848603121561182457600080fd5b61182d846117f3565b925060208401359150611842604085016117f3565b90509250925092565b60006020828403121561185d57600080fd5b611866826117f3565b9392505050565b60008060006060848603121561188257600080fd5b61188b846117f3565b9250611899602085016117f3565b9150604084013590509250925092565b600080604083850312156118bc57600080fd5b6118c5836117f3565b946020939093013593505050565b60005b838110156118ee5781810151838201526020016118d6565b50506000910152565b6000815180845261190f8160208601602086016118d3565b601f01601f19169290920160200192915050565b60a08152600061193660a08301886118f7565b9515156020830152506001600160a01b0393841660408201529183166060830152909116608090910152919050565b6000806040838503121561197857600080fd5b611981836117f3565b915061198f602084016117f3565b90509250929050565b6020808252825182820181905260009190848201906040850190845b818110156119d95783516001600160a01b0316835292840192918401916001016119b4565b50909695505050505050565b6000602082840312156119f757600080fd5b5051919050565b634e487b7160e01b600052601160045260246000fd5b808201808211156108cd576108cd6119fe565b818103818111156108cd576108cd6119fe565b634e487b7160e01b600052603260045260246000fd5b600060208284031215611a6257600080fd5b8151801515811461186657600080fd5b60008251611a848184602087016118d3565b9190910192915050565b60208152600061186660208301846118f756fea264697066735822122019852cf09308808da765cc3ada206687673782e670ca40eda9af4c9db62e39ca64736f6c63430008130033",
  "linkReferences": {},
  "deployedLinkReferences": {}
}